:020000040000FA
:100000000C94A3000C94CB000C94CB000C94CB006C
:100010000C94CB000C94CB000C94CB000C94CB0034
:100020000C94CB000C94CB000C94CB000C94CB0024
:100030000C94CB000C94CB000C94CB000C94CB0014
:100040000C949F030C94CB000C94CB000C94CB002D
:100050000C94CB000C94CB000C94CB000C94CB00F4
:100060000C94CB000C94CB0007634236B79BD8A707
:100070001A39685618AEBAAB558C1D3CB7CC5763CD
:10008000BD6DEDFD753EF6177231BF000000803F7B
:1000900008000000BE922449123EABAAAA2ABECD97
:1000A000CCCC4C3E00000080BEABAAAAAA3E000009
:1000B0000000BF000000803F000000000008417801
:1000C000D3BB4387D1133D190E3CC3BD4282AD2B38
:1000D0003E68EC8276BED98FE1A93E4C80EFFFBE30
:1000E00001C4FF7F3F00000000000000000024006A
:1000F00027002A0000000000250028002B00000037
:10010000000023002600290004040404040404045D
:1001100002020202020203030303030301020408B2
:100120001020408001020408102001020408102061
:1001300000000008000201000003040700000000A6
:1001400000000000C50511241FBECFEFD8E0DEBFC0
:10015000CDBF11E0A0E0B1E0ECE9F3E102C0059011
:100160000D92AA33B107D9F721E0AAE3B1E001C0AB
:100170001D92A136B207E1F710E0C3EAD0E004C057
:100180002197FE010E94C609C23AD107C9F70E9411
:10019000E9030C94CC090C940000833081F028F41E
:1001A000813099F08230A9F008958730A9F0883025
:1001B000C9F08430B1F4809180008F7D03C08091BC
:1001C00080008F7780938000089584B58F7784BDF9
:1001D000089584B58F7DFBCF8091B0008F77809399
:1001E000B00008958091B0008F7DF9CFCF93DF9359
:1001F000282F30E0F901E05DFE4F8491F901E45EC3
:10020000FE4FD491F901E85FFE4FC491CC23A1F0D9
:1002100081110E94CD00EC2FF0E0EE0FFF1FE250A5
:10022000FF4FA591B491EC91ED2381E090E009F4AA
:1002300080E0DF91CF91089580E090E0FACF1F93A6
:10024000CF93DF93282F30E0F901E05DFE4F8491DA
:10025000F901E45EFE4FD491F901E85FFE4FC491CD
:10026000CC23A9F0162F81110E94CD00EC2FF0E0D5
:10027000EE0FFF1FEC50FF4FA591B4918FB7F8948C
:10028000EC91111108C0D095DE23DC938FBFDF9174
:10029000CF911F910895DE2BF8CFCF93DF9390E09D
:1002A000FC01E45EFE4F2491885F9E4FFC01849127
:1002B0008823D1F090E0880F991FFC01E651FF4F91
:1002C000A591B491FC01EC50FF4FC591D4916230DF
:1002D00071F49FB7F8943C91822F809583238C937F
:1002E000E8812E2B28839FBFDF91CF9108958FB790
:1002F000F894EC912E2B2C938FBFF6CF3FB7F89448
:100300008091450190914601A0914701B09148012B
:1003100026B5A89B05C02F3F19F00196A11DB11D60
:100320003FBFBA2FA92F982F8827BC01CD01620F9C
:10033000711D811D911D42E0660F771F881F991F57
:100340004A95D1F708958F929F92AF92BF92CF9224
:10035000DF92EF92FF924B015C010E947E016B01E4
:100360007C010E947E016C197D098E099F09683EFF
:10037000734081059105A8F321E0821A9108A10834
:10038000B10888EEC80E83E0D81EE11CF11C811470
:100390009104A104B10429F7FF90EF90DF90CF9072
:1003A000BF90AF909F908F900895AF92BF92CF92E1
:1003B000DF92EF92FF920F931F93CF93DF936C0125
:1003C0007B018B01040F151FEB015E01AE18BF0806
:1003D000C017D10759F06991D601ED91FC910190B8
:1003E000F081E02DC6010995892B79F7C501DF91D0
:1003F000CF911F910F91FF90EF90DF90CF90BF9022
:10040000AF900895089590E080E00895FC01019078
:100410000020E9F73197AF01481B590BBC0189E473
:1004200091E00C94D5018F929F92AF92BF920F935F
:100430001F93CF93DF93CDB7DEB7A1970FB6F89494
:10044000DEBF0FBECDBF19A2423008F44AE08E01D4
:100450000F5D1F4F842E912CB12CA12CA50194016E
:100460000E94A409E62FB901CA01EA30F4F4E05D64
:10047000D801EE938D01232B242B252B79F790E0C7
:1004800080E0109719F0CD010E940602A1960FB6E8
:10049000F894DEBF0FBECDBFDF91CF911F910F91BA
:1004A000BF90AF909F908F900895E95CE1CFCF937C
:1004B000DF93EC0160E08E810E941F0161E08E817C
:1004C0000E941F0160E08E810E941F018BE891E075
:1004D0000197F1F7DF91CF910895CF92DF92EF92DC
:1004E000FF920F931F93CF93DF936C017C0187E002
:1004F000E80EF11CD0E0C0E0062F10E0B8010C2E91
:1005000002C0759567950A94E2F76170F7018191D1
:100510007F010E941F012196C430D10579F7C601E1
:10052000DF91CF911F910F91FF90EF90DF90CF90CF
:100530000C945702CF92DF92EF92FF920F931F938A
:10054000CF93DF93EC01F62E642F8C810E941F0164
:100550008D818F3F19F060E00E941F010F2D10E088
:100560008F8584FF25C06E0187E0C80ED11CF12C59
:10057000E12CB8010E2C02C0759567950A94E2F73C
:100580006170F60181916F010E941F01FFEFEF1A68
:10059000FF0A88E0E816F10461F7CE01DF91CF9100
:1005A0001F910F91FF90EF90DF90CF900C94570226
:1005B000B80184E0759567958A95E1F7CE010E94B0
:1005C0006D026F2DCE01DF91CF911F910F91FF90A2
:1005D000EF90DF90CF900C946D0240E0682F89E49B
:1005E00091E00C949A02CF93DF93823029F490919A
:1005F000580198609093580180935C0110925D01BE
:1006000080E480935E0180E180935F0180E58093C8
:10061000600161E080914D010E944D0180914E0189
:100620008F3F19F061E00E944D0161E080914F0120
:100630000E944D01C9E4D1E09E01295431408091CE
:10064000580184FD0BC084E090E0219628173907FB
:1006500044F461E08E810E944D01EECF88E090E08D
:10066000F4CF8BE39DE00197F1F760E080914D01BD
:100670000E941F0160E080914F010E941F01809144
:100680004E018F3F19F060E00E941F0180915801D8
:1006900084FD39C063E089E491E00E946D02CBE4FF
:1006A000D6E4CE010197F1F763E089E491E00E947E
:1006B0006D022197F1F763E089E491E00E946D02F9
:1006C00083E592E00197F1F762E089E491E00E940E
:1006D0006D028091580180620E94ED0284E0809357
:1006E00059018CE00E94ED0281E00E94ED028BE353
:1006F0009FE10197F1F782E080935A0186E0DF9154
:10070000CF910C94ED0280620E94ED028BE496E49E
:100710000197F1F78091580180620E94ED0283E514
:1007200092E00197F1F78091580180620E94ED02FA
:10073000D0CF41E00E949A0281E090E008951F929C
:100740000F920FB60F9211242F933F938F939F9385
:10075000AF93BF938091410190914201A0914301D9
:10076000B09144013091400123E0230F2D3758F51B
:100770000196A11DB11D20934001809341019093EA
:100780004201A0934301B0934401809145019091AF
:100790004601A0914701B09148010196A11DB11DEC
:1007A0008093450190934601A0934701B09348017F
:1007B000BF91AF919F918F913F912F910F900FBE5D
:1007C0000F901F90189526E8230F0296A11DB11DCA
:1007D000D2CF789484B5826084BD84B5816084BDB5
:1007E00085B5826085BD85B5816085BD80916E00CF
:1007F000816080936E001092810080918100826000
:10080000809381008091810081608093810080913C
:1008100080008160809380008091B100846080932B
:10082000B1008091B00081608093B00080917A0027
:10083000846080937A0080917A00826080937A004D
:1008400080917A00816080937A0080917A0080683C
:1008500080937A001092C10082E00E94F302E1E0EE
:1008600080915C018111E0E0E195F0E0E75BFE4FF3
:10087000848980680E94ED028DE091E00E9406026A
:1008800062E082E00E944D0162E083E00E944D013F
:1008900010E4C0E0D0E082E00E94F600892B09F06D
:1008A000A6C080910001882309F4A1C062E370E032
:1008B00080E090E00E94A30182E00E94F600892B74
:1008C00009F095C010923F0110923E018FB7F89445
:1008D000C0904101D0904201E0904301F09044016A
:1008E0008FBF2FB7F8948091410190914201A09160
:1008F0004301B09144012FBF8C199D09AE09BF0976
:10090000883E9340A105B10508F510937C008091C5
:100910007A00806480937A0080917A0086FDFCCF13
:10092000809178009091790020913E0130913F01B3
:100930002817390724F490933F0180933E0165E026
:1009400070E080E090E00E94A301CBCF60913E0177
:1009500070913F01072E000C880B990B0E94F8063E
:1009600020E030EC4FE754E40E94550620E030E0F0
:1009700040EA50E40E94AD072BE83CE647E45FEB19
:100980000E941A0823E333EF4CE753E40E94AD07BB
:1009900060933A0170933B0180933C0190933D0139
:1009A000E0915C01E23008F058C0E150F0E0E75B14
:1009B000FE4F848980680E94ED0283E391E00E94EB
:1009C0000602C0903A01D0903B01E0903C01F090CB
:1009D0003D01A7019601C701B6010E946A0888235C
:1009E000F1F18CE191E00E9406021092000183E097
:1009F0000E94F600892B59F562E370E080E090E0F8
:100A00000E94A30183E00E94F600892B01F5109259
:100A10003F0110923E0110923A0110923B01109258
:100A20003C0110923D01E0915C01E23008F0ABC066
:100A3000E150F0E0E75BFE4F848980680E94ED02A0
:100A400088E291E00E94060281E0809300012097F5
:100A500009F421CF0E9400001ECFE1E0A7CF46019C
:100A60005701E894B7F82FEF3FEF4FE75FE7C50175
:100A7000B4010E946A0881110DC02FEF3FEF4FE7CC
:100A80005FE7C501B4010E94500618161CF480E20D
:100A900091E0A9CF2FEF3FEF4FE75FE4C701B60129
:100AA0000E94A80718161CF484E291E09CCF2FEF57
:100AB0003FEF4FE75FECC701B6010E94500687FD8C
:100AC000F3CF20E030E0A901C701B6010E94500633
:100AD00087FF0AC041E06DE289E491E00E949A023A
:100AE000F7FAF094F7F8F0942AE037ED43EA5BE385
:100AF000C701B6010E94E4054B015C010E94C706D4
:100B00006B017C010E94F6069B01AC01C501B4019A
:100B10000E94E3054B015C014AE0C701B6010E9457
:100B2000130241E06EE289E491E00E949A0220E023
:100B300030E040E251E4C501B4010E94AD074B0131
:100B40005C010E94C7066B01F12CE12C4AE0C70151
:100B5000B6010E941302C701B6010E94F6069B016E
:100B6000AC01C501B4010E94E30520E030E040E2A1
:100B700051E40E94AD070E94C70690E080E04AE081
:100B80000E94130232CFE1E054CFE9E4F1E0138296
:100B9000128285E091E09183808387E084838FEFE8
:100BA000858388E0868389E087838AE080878BE07D
:100BB00081878CE0828713861486158616861786B1
:100BC00081E00C94F3025058BB27AA270E94FB0532
:100BD0000C946E070E94600738F00E94670720F0AF
:100BE00039F49F3F19F426F40C945D070EF4E09558
:100BF000E7FB0C945707E92F0E947F0758F3BA17B9
:100C0000620773078407950720F079F4A6F50C9422
:100C1000A1070EF4E0950B2EBA2FA02D0B01B90100
:100C200090010C01CA01A0011124FF27591B99F062
:100C3000593F50F4503E68F11A16F040A22F232F6E
:100C4000342F4427585FF3CF469537952795A795BE
:100C5000F0405395C9F77EF41F16BA0B620B730B65
:100C6000840BBAF09150A1F0FF0FBB1F661F771FD6
:100C7000881FC2F70EC0BA0F621F731F841F48F48B
:100C8000879577956795B795F7959E3F08F0B0CF14
:100C90009395880F08F09927EE0F979587950895FB
:100CA0000E94330708F481E008950E9469060C94BD
:100CB0006E070E94670758F00E94600740F029F411
:100CC0005F3F29F00C94570751110C94A2070C9424
:100CD0005D070E947F0768F39923B1F3552391F3D1
:100CE000951B550BBB27AA2762177307840738F09B
:100CF0009F5F5F4F220F331F441FAA1FA9F335D0F8
:100D00000E2E3AF0E0E832D091505040E695001CAB
:100D1000CAF72BD0FE2F29D0660F771F881FBB1F65
:100D2000261737074807AB07B0E809F0BB0B802D43
:100D3000BF01FF2793585F4F3AF09E3F510578F06F
:100D40000C9457070C94A2075F3FE4F3983ED4F34A
:100D5000869577956795B795F7959F5FC9F7880F43
:100D6000911D9695879597F90895E1E0660F771F95
:100D7000881FBB1F621773078407BA0720F0621B26
:100D8000730B840BBA0BEE1F88F7E09508950E9451
:100D9000870788F09F5798F0B92F9927B751B0F07F
:100DA000E1F0660F771F881F991F1AF0BA95C9F7EF
:100DB00014C0B13091F00E94A107B1E008950C94E5
:100DC000A107672F782F8827B85F39F0B93FCCF398
:100DD000869577956795B395D9F73EF4909580956C
:100DE000709561957F4F8F4F9F4F0895E89409C08C
:100DF00097FB3EF490958095709561957F4F8F4F4E
:100E00009F4F9923A9F0F92F96E9BB279395F69563
:100E1000879577956795B795F111F8CFFAF4BB0FE1
:100E200011F460FF1BC06F5F7F4F8F4F9F4F16C045
:100E3000882311F096E911C0772321F09EE8872FCF
:100E4000762F05C0662371F096E8862F70E060E08B
:100E50002AF09A95660F771F881FDAF7880F969504
:100E6000879597F90895990F0008550FAA0BE0E8A8
:100E7000FEEF16161706E807F907C0F0121613065C
:100E8000E407F50798F0621B730B840B950B39F49C
:100E90000A2661F0232B242B252B21F408950A2602
:100EA00009F4A140A6958FEF811D811D089597F942
:100EB0009F6780E870E060E008959FEF80EC089500
:100EC00000240A9416161706180609060895002429
:100ED0000A9412161306140605060895092E0394A3
:100EE000000C11F4882352F0BB0F40F4BF2B11F417
:100EF00060FF04C06F5F7F4F8F4F9F4F089557FD76
:100F00009058440F551F59F05F3F71F04795880F77
:100F100097FB991F61F09F3F79F08795089512160E
:100F200013061406551FF2CF4695F1DF08C01616BA
:100F300017061806991FF1CF86957105610508946B
:100F40000895E894BB2766277727CB0197F9089582
:100F50000E94330708F48FEF08950E94C0070C9495
:100F60006E070E94600738F00E94670720F0952303
:100F700011F00C9457070C945D0711240C94A207F0
:100F80000E947F0770F3959FC1F3950F50E0551FA6
:100F9000629FF001729FBB27F00DB11D639FAA27CE
:100FA000F00DB11DAA1F649F6627B00DA11D661F1D
:100FB000829F2227B00DA11D621F739FB00DA11D3E
:100FC000621F839FA00D611D221F749F3327A00DF8
:100FD000611D231F849F600D211D822F762F6A2F94
:100FE00011249F5750409AF0F1F088234AF0EE0FF9
:100FF000FF1FBB1F661F771F881F91505040A9F726
:101000009E3F510580F00C9457070C94A2075F3F58
:10101000E4F3983ED4F3869577956795B795F79561
:10102000E7959F5FC1F7FE2B880F911D96958795D9
:1010300097F90895FA01EE0FFF1F3096210531054B
:10104000A1F16115710561F48038BFE39B0749F197
:1010500068949038810561F08038BFEF9B0741F0BC
:1010600099234AF5FF3FE1053105210519F1E8947F
:101070000894E795D901AA2329F4AB2FBE2FF85F76
:10108000D0F310C0FF5F70F4A695E0F7F73950F089
:1010900019F0FF3A38F49F779F930DD00F9007FC1B
:1010A0009058089546F00C945D0760E070E080E889
:1010B0009FE308954FE79F775F934F933F932F935D
:1010C0000E941A092F913F914F915F910E94AD07A5
:1010D0000C9477080E943307880B990B089529F424
:1010E00016F00C9457070C94A1070C945D070E940E
:1010F0008707A8F39638A0F707F80F92E8942BE338
:101100003AEA48EB5FE70E94C3070F920F920F92F3
:101110004DB75EB70F920E946209E8E6F0E00E94C8
:10112000A9084F915F91EF91FF91E595EE1FFF1F89
:1011300049F0FE57E0684427EE0F441FFA95E1F7A7
:101140004195550B0E94DC080F9007FE0C94D008C7
:101150000895DF93CF931F930F93FF92EF92DF9247
:101160007B018C01689406C0DA2EEF010E94C00753
:10117000FE01E894A5912591359145915591A6F3ED
:10118000EF010E94FB05FE019701A801DA9469F7BF
:10119000DF90EF90FF900F911F91CF91DF91089515
:1011A0009B01AC0160E070E080E89FE30C94550681
:1011B0000C9457070C9496090E948707D8F399233B
:1011C000C9F3940F511DA3F39150504094F059F07E
:1011D000882332F0660F771F881F91505040C1F767
:1011E0009E3F51052CF7880F911D9695879597F98D
:1011F00008955F3FACF0983E9CF0BB2786957795AD
:101200006795B79508F4B1609395C1F7BB0F58F790
:1012100011F460FFE8CF6F5F7F4F8F4F9F4FE3CF99
:101220000C94A20716F00C9496090C945D07689430
:101230000C9457070E948707A8F39923C1F3AEF3D4
:10124000DF93CF931F930F93FF92C92FDD2788233E
:101250002AF02197660F771F881FDAF720E030E029
:1012600040E85FEB9FE3883920F0803E38F021961C
:101270008F770E94E405E0E9F0E004C00E94E405F5
:10128000EDEBF0E00E94A9088B01BE01EC01FB2E02
:101290006F5771097595771F880B990B0E94F80697
:1012A00028E132E741E35FE30E94C007AF2D9801D8
:1012B000AE01FF900F911F91CF91DF910E94FB052E
:1012C0000C946E07FA01DC01AA0FBB1F9B01AC0155
:1012D000BF5728F4222733274427507820C0B7511E
:1012E00090F4AB2F0024469537952795011CA395C4
:1012F000D2F3002071F0220F331F441FB395DAF3AD
:101300000ED00C94E30561307105A0E88A07B94658
:1013100030F49B01AC0166277727882790783096B8
:1013200021F0208331834283538308959F3F31F01E
:10133000915020F4879577956795B795880F911D03
:101340009695879597F90895A1E21A2EAA1BBB1BC3
:10135000FD010DC0AA1FBB1FEE1FFF1FA217B30781
:10136000E407F50720F0A21BB30BE40BF50B661F97
:10137000771F881F991F1A9469F76095709580955B
:1013800090959B01AC01BD01CF010895EE0FFF1FA9
:101390000590F491E02D0994F894FFCF010000002E
:1013A000009903D50103020202202020426C6F6FD6
:1013B00064205375676172006E616E00696E66002D
:1013C0006F76660020202020202020202020202052
:0613D00020202020000097
:107E0000112484B714BE81FFF0D085E080938100F7
:107E100082E08093C00088E18093C10086E0809377
:107E2000C20080E18093C4008EE0C9D0259A86E02C
:107E300020E33CEF91E0309385002093840096BBD3
:107E4000B09BFECF1D9AA8958150A9F7CC24DD24C4
:107E500088248394B5E0AB2EA1E19A2EF3E0BF2EE7
:107E6000A2D0813461F49FD0082FAFD0023811F036
:107E7000013811F484E001C083E08DD089C08234E0
:107E800011F484E103C0853419F485E0A6D080C0E4
:107E9000853579F488D0E82EFF2485D0082F10E0AE
:107EA000102F00270E291F29000F111F8ED06801E7
:107EB0006FC0863521F484E090D080E0DECF843638
:107EC00009F040C070D06FD0082F6DD080E0C81688
:107ED00080E7D80618F4F601B7BEE895C0E0D1E017
:107EE00062D089930C17E1F7F0E0CF16F0E7DF06D8
:107EF00018F0F601B7BEE89568D007B600FCFDCFD4
:107F0000A601A0E0B1E02C9130E011968C91119780
:107F100090E0982F8827822B932B1296FA010C0160
:107F200087BEE89511244E5F5F4FF1E0A038BF0790
:107F300051F7F601A7BEE89507B600FCFDCF97BE46
:107F4000E89526C08437B1F42ED02DD0F82E2BD052
:107F50003CD0F601EF2C8F010F5F1F4F84911BD097
:107F6000EA94F801C1F70894C11CD11CFA94CF0C13
:107F7000D11C0EC0853739F428D08EE10CD085E9AC
:107F80000AD08FE07ACF813511F488E018D01DD067
:107F900080E101D065CF982F8091C00085FFFCCF94
:107FA0009093C60008958091C00087FFFCCF809118
:107FB000C00084FD01C0A8958091C6000895E0E648
:107FC000F0E098E1908380830895EDDF803219F02E
:107FD00088E0F5DFFFCF84E1DECF1F93182FE3DFCA
:107FE0001150E9F7F2DF1F91089580E0E8DFEE27F6
:047FF000FF270994CA
:027FFE00040479
:00000001FF
